{
  "contractName": "TodoList",
  "abi": [
    {
      "constant": true,
      "inputs": [],
      "name": "helloWorld",
      "outputs": [
        {
          "internalType": "string",
          "name": "",
          "type": "string"
        }
      ],
      "payable": false,
      "stateMutability": "pure",
      "type": "function"
    },
    {
      "constant": true,
      "inputs": [],
      "name": "getAllTasks",
      "outputs": [
        {
          "components": [
            {
              "internalType": "uint256",
              "name": "id",
              "type": "uint256"
            },
            {
              "internalType": "string",
              "name": "desc",
              "type": "string"
            },
            {
              "internalType": "enum TodoList.Status",
              "name": "status",
              "type": "uint8"
            }
          ],
          "internalType": "struct TodoList.Task[]",
          "name": "",
          "type": "tuple[]"
        }
      ],
      "payable": false,
      "stateMutability": "view",
      "type": "function"
    },
    {
      "constant": true,
      "inputs": [],
      "name": "getCompletedTasks",
      "outputs": [
        {
          "components": [
            {
              "internalType": "uint256",
              "name": "id",
              "type": "uint256"
            },
            {
              "internalType": "string",
              "name": "desc",
              "type": "string"
            },
            {
              "internalType": "enum TodoList.Status",
              "name": "status",
              "type": "uint8"
            }
          ],
          "internalType": "struct TodoList.Task[]",
          "name": "",
          "type": "tuple[]"
        }
      ],
      "payable": false,
      "stateMutability": "view",
      "type": "function"
    },
    {
      "constant": false,
      "inputs": [
        {
          "internalType": "string",
          "name": "_taskDescription",
          "type": "string"
        }
      ],
      "name": "addTask",
      "outputs": [],
      "payable": false,
      "stateMutability": "nonpayable",
      "type": "function"
    },
    {
      "constant": false,
      "inputs": [
        {
          "internalType": "uint256",
          "name": "_taskId",
          "type": "uint256"
        }
      ],
      "name": "completeTask",
      "outputs": [],
      "payable": false,
      "stateMutability": "nonpayable",
      "type": "function"
    },
    {
      "constant": false,
      "inputs": [
        {
          "internalType": "uint256",
          "name": "_taskId",
          "type": "uint256"
        }
      ],
      "name": "deleteTask",
      "outputs": [],
      "payable": false,
      "stateMutability": "nonpayable",
      "type": "function"
    }
  ],
  "bytecode": "0x608060405234801561001057600080fd5b50610c63806100206000396000f3fe608060405234801561001057600080fd5b50600436106100625760003560e01c8063560f31921461006757806367238562146100835780636c830f4b1461009f578063779900b4146100bd578063c605f76c146100db578063e1e29558146100f9575b600080fd5b610081600480360361007c9190810190610942565b610115565b005b61009d600480360361009891908101906108fd565b6101fd565b005b6100a761030c565b6040516100b49190610ad4565b60405180910390f35b6100c56104e5565b6040516100d29190610ad4565b60405180910390f35b6100e361070a565b6040516100f09190610af6565b60405180910390f35b610113600480360361010e9190810190610942565b610747565b005b600080828154811061012357fe5b906000526020600020906003020190506001600281111561014057fe5b8160020160009054906101000a900460ff16600281111561015d57fe5b141561018e5760016000815480929190600190039190505550600260008154809291906001900391905055506101d3565b6000600281111561019b57fe5b8160020160009054906101000a900460ff1660028111156101b857fe5b14156101d257600160008154809291906001900391905055505b5b60028160020160006101000a81548160ff021916908360028111156101f457fe5b02179055505050565b6102056107a1565b6040518060600160405280600154815260200184848080601f016020809104026020016040519081016040528093929190818152602001838380828437600081840152601f19601f8201169050808301925050505050505081526020016000600281111561026f57fe5b8152509050600081908060018154018082558091505090600182039060005260206000209060030201600090919290919091506000820151816000015560208201518160010190805190602001906102c89291906107cd565b5060408201518160020160006101000a81548160ff021916908360028111156102ed57fe5b0217905550505050600160008154809291906001019190505550505050565b60608060025460405190808252806020026020018201604052801561034b57816020015b61033861084d565b8152602001906001900390816103305790505b509050600080905060008090505b6000805490508110156104dc576001600281111561037357fe5b6000828154811061038057fe5b906000526020600020906003020160020160009054906101000a900460ff1660028111156103aa57fe5b14156104c757600081815481106103bd57fe5b906000526020600020906003020160405180606001604052908160008201548152602001600182018054600181600116156101000203166002900480601f0160208091040260200160405190810160405280929190818152602001828054600181600116156101000203166002900480156104795780601f1061044e57610100808354040283529160200191610479565b820191906000526020600020905b81548152906001019060200180831161045c57829003601f168201915b505050505081526020016002820160009054906101000a900460ff1660028111156104a057fe5b60028111156104ab57fe5b815250508383815181106104bb57fe5b60200260200101819052505b81806001019250508080600101915050610359565b50819250505090565b60608060015460405190808252806020026020018201604052801561052457816020015b61051161084d565b8152602001906001900390816105095790505b509050600080905060008090505b600080549050811015610701576000600281111561054c57fe5b6000828154811061055957fe5b906000526020600020906003020160020160009054906101000a900460ff16600281111561058357fe5b14806105d057506001600281111561059757fe5b600082815481106105a457fe5b906000526020600020906003020160020160009054906101000a900460ff1660028111156105ce57fe5b145b156106ec57600081815481106105e257fe5b906000526020600020906003020160405180606001604052908160008201548152602001600182018054600181600116156101000203166002900480601f01602080910402602001604051908101604052809291908181526020018280546001816001161561010002031660029004801561069e5780601f106106735761010080835404028352916020019161069e565b820191906000526020600020905b81548152906001019060200180831161068157829003601f168201915b505050505081526020016002820160009054906101000a900460ff1660028111156106c557fe5b60028111156106d057fe5b815250508383815181106106e057fe5b60200260200101819052505b81806001019250508080600101915050610532565b50819250505090565b60606040518060400160405280602081526020017f48656c6c6f20576f726c642066726f6d20736d61727420636f6e747261637421815250905090565b600080828154811061075557fe5b9060005260206000209060030201905060018160020160006101000a81548160ff0219169083600281111561078657fe5b02179055506002600081548092919060010191905055505050565b60405180606001604052806000815260200160608152602001600060028111156107c757fe5b81525090565b828054600181600116156101000203166002900490600052602060002090601f016020900481019282601f1061080e57805160ff191683800117855561083c565b8280016001018555821561083c579182015b8281111561083b578251825591602001919060010190610820565b5b5090506108499190610879565b5090565b604051806060016040528060008152602001606081526020016000600281111561087357fe5b81525090565b61089b91905b8082111561089757600081600090555060010161087f565b5090565b90565b60008083601f8401126108b057600080fd5b8235905067ffffffffffffffff8111156108c957600080fd5b6020830191508360018202830111156108e157600080fd5b9250929050565b6000813590506108f781610c09565b92915050565b6000806020838503121561091057600080fd5b600083013567ffffffffffffffff81111561092a57600080fd5b6109368582860161089e565b92509250509250929050565b60006020828403121561095457600080fd5b6000610962848285016108e8565b91505092915050565b60006109778383610a75565b905092915050565b600061098a82610b28565b6109948185610b56565b9350836020820285016109a685610b18565b8060005b858110156109e257848403895281516109c3858261096b565b94506109ce83610b49565b925060208a019950506001810190506109aa565b50829750879550505050505092915050565b6109fd81610ba6565b82525050565b6000610a0e82610b3e565b610a188185610b78565b9350610a28818560208601610bb8565b610a3181610beb565b840191505092915050565b6000610a4782610b33565b610a518185610b67565b9350610a61818560208601610bb8565b610a6a81610beb565b840191505092915050565b6000606083016000830151610a8d6000860182610ac5565b5060208301518482036020860152610aa58282610a3c565b9150506040830151610aba60408601826109f4565b508091505092915050565b610ace81610b9c565b82525050565b60006020820190508181036000830152610aee818461097f565b905092915050565b60006020820190508181036000830152610b108184610a03565b905092915050565b6000819050602082019050919050565b600081519050919050565b600081519050919050565b600081519050919050565b6000602082019050919050565b600082825260208201905092915050565b600082825260208201905092915050565b600082825260208201905092915050565b6000819050610b9782610bfc565b919050565b6000819050919050565b6000610bb182610b89565b9050919050565b60005b83811015610bd6578082015181840152602081019050610bbb565b83811115610be5576000848401525b50505050565b6000601f19601f8301169050919050565b60038110610c0657fe5b50565b610c1281610b9c565b8114610c1d57600080fd5b5056fea365627a7a723158207548b48d8f3d71f56978951e6fc0adc7991e52cb67c67e2835e4d5aa4c5470fa6c6578706572696d656e74616cf564736f6c63430005100040",
  "source": "// SPDX-License-Identifier: MIT\npragma solidity >=0.4.22 <0.9.0;\npragma experimental ABIEncoderV2;\n\ncontract TodoList {\n    enum Status {\n        INCOMPLETE,\n        COMPLETED,\n        DELETED\n    }\n\n    struct Task {\n        uint256 id;\n        string desc;\n        Status status;\n    }\n\n    Task[] private tasks;\n    uint256 private allTasksCount;\n    uint256 private completedTasksCount;\n\n    function helloWorld() external pure returns (string memory) {\n        return \"Hello World from smart contract!\";\n    }\n\n    function getAllTasks() external view returns (Task[] memory) {\n        Task[] memory allTasks = new Task[](allTasksCount);\n        uint256 index = 0;\n        for (uint256 i = 0; i < tasks.length; i++) {\n            if (\n                tasks[i].status == Status.INCOMPLETE ||\n                tasks[i].status == Status.COMPLETED\n            ) {\n                allTasks[index] = tasks[i];\n            }\n            index++;\n        }\n        return allTasks;\n    }\n\n    function getCompletedTasks() external view returns (Task[] memory) {\n        Task[] memory allCompletedTasks = new Task[](completedTasksCount);\n        uint256 index = 0;\n        for (uint256 i = 0; i < tasks.length; i++) {\n            if (tasks[i].status == Status.COMPLETED) {\n                allCompletedTasks[index] = tasks[i];\n            }\n            index++;\n        }\n        return allCompletedTasks;\n    }\n\n    function addTask(string calldata _taskDescription) external {\n        Task memory newTask = Task(\n            allTasksCount,\n            _taskDescription,\n            Status.INCOMPLETE\n        );\n        tasks.push(newTask);\n        allTasksCount++;\n    }\n\n    function completeTask(uint256 _taskId) external {\n        Task storage t = tasks[_taskId];\n        t.status = Status.COMPLETED;\n        completedTasksCount++;\n    }\n\n    function deleteTask(uint256 _taskId) external {\n        Task storage t = tasks[_taskId];\n        if (t.status == Status.COMPLETED) {\n            allTasksCount--;\n            completedTasksCount--;\n        } else if (t.status == Status.INCOMPLETE) {\n            allTasksCount--;\n        }\n        t.status = Status.DELETED;\n    }\n\n    // function updateTask(uint256 _taskId) external {\n    //     Task storage t = tasks[_taskId];\n    // }\n}\n",
  "sourcePath": "C:\\Users\\Gary\\Desktop\\Side Projects\\DApps\\todo-solidity\\blockchain\\contracts\\TodoList.sol",
  "compiler": {
    "name": "solc",
    "version": "0.5.16+commit.9c3226ce.Emscripten.clang"
  },
  "schemaVersion": "3.4.2",
  "updatedAt": "2021-07-29T12:14:07.802Z",
  "networkType": "ethereum",
  "devdoc": {
    "methods": {}
  },
  "userdoc": {
    "methods": {}
  }
}