{
  "contractName": "TodoList",
  "abi": [
    {
      "constant": true,
      "inputs": [],
      "name": "helloWorld",
      "outputs": [
        {
          "internalType": "string",
          "name": "",
          "type": "string"
        }
      ],
      "payable": false,
      "stateMutability": "pure",
      "type": "function"
    },
    {
      "constant": true,
      "inputs": [],
      "name": "getAllTasks",
      "outputs": [
        {
          "components": [
            {
              "internalType": "uint256",
              "name": "id",
              "type": "uint256"
            },
            {
              "internalType": "string",
              "name": "desc",
              "type": "string"
            },
            {
              "internalType": "bool",
              "name": "status",
              "type": "bool"
            }
          ],
          "internalType": "struct TodoList.Task[]",
          "name": "",
          "type": "tuple[]"
        }
      ],
      "payable": false,
      "stateMutability": "view",
      "type": "function"
    },
    {
      "constant": true,
      "inputs": [],
      "name": "getCompletedTasks",
      "outputs": [
        {
          "components": [
            {
              "internalType": "uint256",
              "name": "id",
              "type": "uint256"
            },
            {
              "internalType": "string",
              "name": "desc",
              "type": "string"
            },
            {
              "internalType": "bool",
              "name": "status",
              "type": "bool"
            }
          ],
          "internalType": "struct TodoList.Task[]",
          "name": "",
          "type": "tuple[]"
        }
      ],
      "payable": false,
      "stateMutability": "view",
      "type": "function"
    },
    {
      "constant": false,
      "inputs": [
        {
          "internalType": "string",
          "name": "_taskDescription",
          "type": "string"
        }
      ],
      "name": "addTask",
      "outputs": [],
      "payable": false,
      "stateMutability": "nonpayable",
      "type": "function"
    },
    {
      "constant": false,
      "inputs": [
        {
          "internalType": "uint256",
          "name": "_taskId",
          "type": "uint256"
        }
      ],
      "name": "completeTask",
      "outputs": [],
      "payable": false,
      "stateMutability": "nonpayable",
      "type": "function"
    }
  ],
  "bytecode": "0x60806040526000805534801561001457600080fd5b50610a70806100246000396000f3fe608060405234801561001057600080fd5b50600436106100575760003560e01c8063672385621461005c5780636c830f4b14610078578063779900b414610096578063c605f76c146100b4578063e1e29558146100d2575b600080fd5b61007660048036036100719190810190610730565b6100ee565b005b6100806101d1565b60405161008d9190610907565b60405180910390f35b61009e6102f7565b6040516100ab9190610907565b60405180910390f35b6100bc61045a565b6040516100c99190610929565b60405180910390f35b6100ec60048036036100e79190810190610775565b610497565b005b6100f661055f565b6040518060600160405280600054815260200184848080601f016020809104026020016040519081016040528093929190818152602001838380828437600081840152601f19601f820116905080830192505050505050508152602001600015158152509050806001600080548152602001908152602001600020600082015181600001556020820151816001019080519060200190610197929190610582565b5060408201518160020160006101000a81548160ff0219169083151502179055509050506000808154809291906001019190505550505050565b60606002805480602002602001604051908101604052809291908181526020016000905b828210156102ee578382906000526020600020906003020160405180606001604052908160008201548152602001600182018054600181600116156101000203166002900480601f0160208091040260200160405190810160405280929190818152602001828054600181600116156101000203166002900480156102bb5780601f10610290576101008083540402835291602001916102bb565b820191906000526020600020905b81548152906001019060200180831161029e57829003601f168201915b505050505081526020016002820160009054906101000a900460ff161515151581525050815260200190600101906101f5565b50505050905090565b60608060005460405190808252806020026020018201604052801561033657816020015b610323610602565b81526020019060019003908161031b5790505b50905060008090505b600054811015610452576001600082815260200190815260200160002060405180606001604052908160008201548152602001600182018054600181600116156101000203166002900480601f01602080910402602001604051908101604052809291908181526020018280546001816001161561010002031660029004801561040a5780601f106103df5761010080835404028352916020019161040a565b820191906000526020600020905b8154815290600101906020018083116103ed57829003601f168201915b505050505081526020016002820160009054906101000a900460ff16151515158152505082828151811061043a57fe5b6020026020010181905250808060010191505061033f565b508091505090565b60606040518060400160405280602081526020017f48656c6c6f20576f726c642066726f6d20736d61727420636f6e747261637421815250905090565b600060016000838152602001908152602001600020905060018160020160006101000a81548160ff02191690831515021790555060028190806001815401808255809150509060018203906000526020600020906003020160009091929091909150600082015481600001556001820181600101908054600181600116156101000203166002900461052a929190610625565b506002820160009054906101000a900460ff168160020160006101000a81548160ff0219169083151502179055505050505050565b604051806060016040528060008152602001606081526020016000151581525090565b828054600181600116156101000203166002900490600052602060002090601f016020900481019282601f106105c357805160ff19168380011785556105f1565b828001600101855582156105f1579182015b828111156105f05782518255916020019190600101906105d5565b5b5090506105fe91906106ac565b5090565b604051806060016040528060008152602001606081526020016000151581525090565b828054600181600116156101000203166002900490600052602060002090601f016020900481019282601f1061065e578054855561069b565b8280016001018555821561069b57600052602060002091601f016020900482015b8281111561069a57825482559160010191906001019061067f565b5b5090506106a891906106ac565b5090565b6106ce91905b808211156106ca5760008160009055506001016106b2565b5090565b90565b60008083601f8401126106e357600080fd5b8235905067ffffffffffffffff8111156106fc57600080fd5b60208301915083600182028301111561071457600080fd5b9250929050565b60008135905061072a81610a16565b92915050565b6000806020838503121561074357600080fd5b600083013567ffffffffffffffff81111561075d57600080fd5b610769858286016106d1565b92509250509250929050565b60006020828403121561078757600080fd5b60006107958482850161071b565b91505092915050565b60006107aa83836108a8565b905092915050565b60006107bd8261095b565b6107c78185610989565b9350836020820285016107d98561094b565b8060005b8581101561081557848403895281516107f6858261079e565b94506108018361097c565b925060208a019950506001810190506107dd565b50829750879550505050505092915050565b610830816109bc565b82525050565b600061084182610971565b61084b81856109ab565b935061085b8185602086016109d2565b61086481610a05565b840191505092915050565b600061087a82610966565b610884818561099a565b93506108948185602086016109d2565b61089d81610a05565b840191505092915050565b60006060830160008301516108c060008601826108f8565b50602083015184820360208601526108d8828261086f565b91505060408301516108ed6040860182610827565b508091505092915050565b610901816109c8565b82525050565b6000602082019050818103600083015261092181846107b2565b905092915050565b600060208201905081810360008301526109438184610836565b905092915050565b6000819050602082019050919050565b600081519050919050565b600081519050919050565b600081519050919050565b6000602082019050919050565b600082825260208201905092915050565b600082825260208201905092915050565b600082825260208201905092915050565b60008115159050919050565b6000819050919050565b60005b838110156109f05780820151818401526020810190506109d5565b838111156109ff576000848401525b50505050565b6000601f19601f8301169050919050565b610a1f816109c8565b8114610a2a57600080fd5b5056fea365627a7a7231582068ab01357968f41753b065cb58fee34339cd5575707995119af8f1e2d19d6ab96c6578706572696d656e74616cf564736f6c63430005100040",
  "source": "// SPDX-License-Identifier: MIT\npragma solidity >=0.4.22 <0.9.0;\npragma experimental ABIEncoderV2;\n\ncontract TodoList {\n    struct Task {\n        uint256 id;\n        string desc;\n        bool status;\n    }\n\n    uint256 taskCount = 0;\n\n    mapping(uint256 => Task) tasks;\n    Task[] private completedTasks;\n\n    function helloWorld() external pure returns (string memory) {\n        return \"Hello World from smart contract!\";\n    }\n\n    function getAllTasks() external view returns (Task[] memory) {\n        Task[] memory allTasks = new Task[](taskCount);\n        for (uint256 i = 0; i < taskCount; i++) {\n            allTasks[i] = tasks[i];\n        }\n        return allTasks;\n    }\n\n    function getCompletedTasks() external view returns (Task[] memory) {\n        return completedTasks;\n    }\n\n    function addTask(string calldata _taskDescription) external {\n        Task memory newTask = Task(taskCount, _taskDescription, false);\n        tasks[taskCount] = newTask;\n        taskCount++;\n    }\n\n    function completeTask(uint256 _taskId) external {\n        Task storage t = tasks[_taskId];\n        t.status = true;\n        completedTasks.push(t);\n    }\n\n    // function deleteTask(uint256 _taskId) external {}\n\n    // function updateTask(uint256 _taskId) external {}\n}\n",
  "sourcePath": "C:\\Users\\Gary\\Desktop\\Side Projects\\DApps\\todo-solidity\\blockchain\\contracts\\TodoList.sol",
  "compiler": {
    "name": "solc",
    "version": "0.5.16+commit.9c3226ce.Emscripten.clang"
  },
  "schemaVersion": "3.4.2",
  "updatedAt": "2021-07-28T19:27:36.757Z",
  "networkType": "ethereum",
  "devdoc": {
    "methods": {}
  },
  "userdoc": {
    "methods": {}
  }
}